:020000040800F2
:1000000018230020F9720008A5670008A7670008F8
:10001000B1670008B3670008B5670008000000007A
:10002000000000000000000000000000B7670008AA
:10003000B967000800000000BB670008BD67000842
:100040004173000845730008497300084D730008A8
:100050005173000855730008597300085D73000858
:100060006173000865730008697300086D73000808
:100070007173000875730008797300087D730008B8
:100080008173000885730008897300088D73000868
:100090009173000895730008997300089D73000818
:1000A000A1730008A5730008A9730008AD730008C8
:1000B000BF670008B5730008B9730008BD73000876
:1000C000C1730008C5730008C9730008CD73000828
:1000D000D1730008D5730008D9730008DD730008D8
:1000E000E1730008E5730008E97300082DE9F24F99
:1000F00084B016001F0000210091002101910168C9
:100100003960416879608068B860386802F0D2F878
:1001100002F008F991F0004102F080F97060B868CF
:1001200002F0C8F802000B0014001D00786802F00D
:10013000C1F822002B0002F0B9F902F06FF9B060AB
:10014000706802F0B7F802F039FA80468946B06864
:1001500002F0B0F802F035FACDE90201706802F061
:10016000A9F802F02EFA82468B46B06802F0A2F897
:1001700002F024FA04000D000498006802F09AF8D6
:1001800042464B4602F020FA804689460498406871
:1001900002F090F8DDE9022302F016FA52465B46BF
:1001A00002F012FA42464B4602F0E0FA80468946D7
:1001B0000498806802F07EF822002B0002F004FA16
:1001C00004000D00706802F075F802F0FAF92200E0
:1001D0002B0002F0F9F942464B4602F0C7FA02F052
:1001E0001DF90700B06802F065F802F0E7F90400B5
:1001F0000D000498406802F05DF822002B0002F028
:10020000E3F9804689460498806802F053F80400B8
:100210000D00B06802F04EF802F0D3F922002B0076
:1002200002F0D2F902000B004046494602F012FBF0
:1002300002F0F4F80090706802F03CF802F0C1F9A6
:1002400080468946B06802F035F802F0BAF9824675
:100250008B46706802F02EF802F0B0F9CDE9020189
:10026000B06802F027F802F0A9F904000D00049824
:10027000006890F0004002F01DF842464B4602F044
:10028000A3F9804689460498406802F013F8524664
:100290005B4602F099F9DDE9022302F095F9424646
:1002A0004B4602F063FA804689460498806802F063
:1002B00001F822002B0002F087F904000D0070689D
:1002C00001F0F8FF02F07AF922002B0002F07CF92D
:1002D00042464B4602F04AFA02F0A0F8DFF8E0137B
:1002E00008603800002102F075FB08D10098002159
:1002F00002F07EFB03D2DFF8CC03006830603800E8
:10030000002102F067FB06D10098002102F082FB79
:1003100001D2002030600098002102F05BFB0FD179
:100320003800002102F064FB0AD2E648006801F0C0
:10033000C1FF0022E44B02F047F902F06FF8306091
:100340000098002102F046FB0FD13800002102F096
:1003500061FB0AD2DB48006801F0ACFF0022DB4BF6
:1003600002F032F902F05AF830603800002102F051
:100370003FFB1DD20098002102F04CFB18D20098E0
:10038000390002F059FB01F095FF02F0D3FB0400A5
:100390000D00CC48006801F08DFF0022CA4B02F02E
:1003A00013F922002B0002F055FA02F037F8306002
:1003B0003800002102F01CFB1DD20098002102F041
:1003C00017FB18D20098390002F036FB01F072FFDB
:1003D00002F0B0FB04000D00BA48006801F06AFFAB
:1003E0000022B94B02F0F0F822002B0002F032FAA2
:1003F00002F014F830603800002102F00BFB1DD22F
:100400000098002102F0F4FA18D20098390002F0A6
:1004100013FB01F04FFF02F08DFB04000D00A94813
:10042000006801F047FF0022A84B02F0CDF822003F
:100430002B0002F00FFA01F0F1FF306038000021CC
:1004400002F0E8FA1DD20098002102F0E3FA18D277
:100450000098390002F0F0FA01F02CFF02F06AFB7C
:1004600004000D009748006801F024FF0022974B1C
:1004700002F0AAF822002B0002F0ECF901F0CEFF06
:10048000306090480068316802F0B2FA0BD28D48B3
:1004900001685FF0804002F097FB0100306802F0D5
:1004A000FFFB019001E030680190019801F002FF2C
:1004B00002F084F804000D00380001F0FBFE220079
:1004C0002B0002F081F880468946009801F0F2FE88
:1004D00004000D00019801F0EDFE02F072F8220018
:1004E0002B0002F071F802000B004046494602F072
:1004F000B1F901F093FF76490860019801F0DAFE46
:1005000002F05FF804000D00380001F0D3FE220075
:100510002B0002F059F806000F00009801F0CAFE07
:1005200004000D00019801F0C5FE02F047F822001A
:100530002B0002F049F832003B0002F017F901F0FD
:100540006DFF6449086064485D490968016005B051
:10055000BDE8F08F2DE9F84F8A4600260468476809
:100560008068060057480068210002F041FA0AD26C
:10057000544801685FF0804002F026FB0100200033
:1005800002F08EFB0400300001F094FE00224F4B7D
:1005900002F01AF802F012F801F040FF05003000F6
:1005A00001F088FE0022494B02F00EF802F009F833
:1005B00001F034FF0600380001F07CFE0022434BBE
:1005C00002F002F801F0FAFF01F028FF814638003E
:1005D00001F070FE00223D4B01F0F6FF01F0F1FF4B
:1005E00001F01CFF8046200001F064FE0022374B22
:1005F00001F0EAFF01F0E2FF01F010FF0700200028
:1006000001F058FE0022314B01F0DEFF01F0D9FF6E
:1006100001F004FF04002800494602F0D5FA390031
:1006200002F0D2FA83463000414602F0CDFA2100B2
:1006300002F0CAFA594602F0A7FBCAF800003000DF
:10064000494602F0C1FA390002F0BEFA834628009A
:10065000414602F0B9FA210002F0B6FA010058460C
:1006600002F01EFBCAF804002800414602F0ACFA72
:10067000390002F0A9FA83463000494602F0A4FA94
:10068000210002F0A1FA594602F07EFBCAF80800E8
:100690002800494602F098FA210002F095FA040079
:1006A0003000414602F090FA390002F08DFA010064
:1006B000200002F0F5FACAF80C00BDE8F18F000046
:1006C000A0030020A00000200000F83F0000E03F51
:1006D00088030020840300208C0300202DE9F34FC1
:1006E000B9B014001D005FF0000900A8402102F01D
:1006F0008DFB5FF0000A28A8402102F087FB10A8BC
:10070000602102F083FB002600275FF00008002034
:100710005FF0000BDFF874180968002907D1DFF8D3
:1007200070080068401CDFF86818086005E0DFF812
:100730006008DFF85C1809680160DFF85408006899
:10074000012804DBDFF844080121016003E0DFF841
:100750003C0800210160469E2068310002F034FA16
:1007600001F0A8FDDFF82C28DFF82C3801F02CFF71
:1007700001F054FEDFF8241808606068310002F0D0
:1007800023FA01F097FDDFF80C28DFF80C3801F0B0
:100790001BFF01F043FEDFF808180860A068310075
:1007A00002F012FA01F086FDDFF8E827DFF8E837FB
:1007B00001F00AFF01F032FEDFF8E8170860DFF809
:1007C000DC070168DFF8D407006802F0FDF90400D7
:1007D000DFF8CC070168DFF8C807006802F0F4F919
:1007E000210002F0D1FA0400DFF8B8070168DFF851
:1007F000B407006802F0E8F9210002F0C5FA04002D
:10080000DDF810A1DAF80010DAF8000002F0DCF9E7
:100810000600DAF80410DAF8040002F0D5F9310025
:1008200002F0B2FA0600DAF80810DAF8080002F06E
:10083000CBF9310002F0A8FA01F03CFD02F0EAFA2F
:1008400001F0ECFD83463998012814D1DFF85807F0
:100850003A9909680160DFF850073A9949684160A0
:10086000DFF844073A9989688160DFF83C073A99D4
:10087000C968C16081E2200001F01CFD00225FF028
:100880007F5301F0A1FE02000B000020DFF81C17CF
:1008900001F0E0FF0022DFF8143701F095FE01F0CF
:1008A000BDFD0090200001F005FDDFF80427DFF812
:1008B000043701F089FE0022DFF8FC3601F056FF14
:1008C00006000F00DFF8D406006801F0F3FC3200E8
:1008D0003B0001F079FE01F0A1FD0190200001F044
:1008E000E9FCDFF8CC26DFF8CC3601F06DFE002203
:1008F000DFF8C43601F03AFF06000F00DFF8A0066B
:10090000006801F0D7FC32003B0001F05DFE01F011
:1009100085FD0290200001F0CDFCDFF89426DFF881
:10092000943601F051FE0022DFF88C3601F01EFFF4
:1009300006000F00DFF86C06006801F0BBFC320017
:100940003B0001F041FE01F069FD0390200001F041
:10095000B1FCDFF85C26DFF85C3601F035FE020002
:100960000B000020DFF8541601F074FF06000F00A2
:10097000DFF82806006801F09DFC32003B0001F022
:1009800023FE01F04BFD0490200001F093FC0022B7
:100990005FF07F5301F018FE02000B000020DFF82B
:1009A0000C1601F057FF0022DFF8003601F00CFEB4
:1009B00001F034FD0590200001F07CFCDFF8F0250B
:1009C000DFF8F03501F000FE02000B000020DFF838
:1009D000EC1501F03FFF06000F00DFF8C8050068C6
:1009E00001F068FC32003B0001F0EEFD01F016FD65
:1009F0000690200001F05EFCDFF8B425DFF8B43586
:100A000001F0E2FD0022DFF8B03501F0AFFE060094
:100A10000F00DFF88C05006801F04CFC32003B0051
:100A200001F0D2FD01F0FAFC0790200001F042FC39
:100A3000DFF87C25DFF87C3501F0C6FD02000B00F5
:100A40000020DFF8781501F005FF06000F00DFF841
:100A50005005006801F02EFC32003B0001F0B4FDAF
:100A600001F0DCFC0890200001F024FCDFF84025B8
:100A7000DFF8403501F0A8FD0022DFF83C3501F039
:100A800075FE06000F00DFF81C05006801F012FC7F
:100A900032003B0001F098FD01F0C0FC09902000FD
:100AA00001F008FC00225FF07F5301F08DFD020091
:100AB0000B000020DFF8F41401F0CCFE0022DFF878
:100AC000EC3401F081FD01F0A9FC0A90200001F056
:100AD000F1FBDFF8DC24DFF8DC3401F075FD020007
:100AE0000B000020DFF8D41401F0B4FE06000F0064
:100AF000DFF8A804006801F0DDFB32003B0001F0E4
:100B000063FD01F08BFC0B90200001F0D3FBDFF8BC
:100B1000A024DFF8A03401F057FD02000B000020F4
:100B2000DFF8981401F096FE06000F00DFF8740459
:100B3000006801F0BFFB32003B0001F045FD01F011
:100B40006DFC0C90200001F0B5FBDFF86424DFF8A9
:100B5000643401F039FD02000B000020DFF85C1462
:100B600001F078FE06000F00DFF83404006801F0A1
:100B7000A1FB32003B0001F027FD01F04FFC0D907E
:100B8000200001F097FBDFF82824DFF8283401F07B
:100B90001BFD0022DFF8203401F0E8FD06000F0005
:100BA000DFF8F803006801F085FB32003B0001F03C
:100BB0000BFD01F033FC0E90200001F07BFB0022C6
:100BC0005FF07F5301F000FD02000B000020DFF812
:100BD000DC1301F03FFE0022DFF8D03301F0F4FC1B
:100BE00001F01CFC0F900099DFF8BC03006801F0D5
:100BF000EBFF04000199EC48406801F0E5FF21009B
:100C000002F0C2F804000299E748806801F0DCFFB6
:100C1000210002F0B9F804000399E348C06801F02C
:100C2000D3FF210002F0B0F806000499DE48006806
:100C300001F0CAFF04000599DB48406801F0C4FFD9
:100C4000210002F0A1F804000699D748806801F05D
:100C5000BBFF210002F098F804000799D248C06851
:100C600001F0B2FF210002F08FF807000899CE488A
:100C7000006801F0A9FF04000999CB48406801F021
:100C8000A3FF210002F080F804000A99C64880689A
:100C900001F09AFF210002F077F804000B99C24896
:100CA000C06801F091FF210002F06EF880460C99B7
:100CB000BD48006801F088FF04000D99BA484068FB
:100CC00001F082FF210002F05FF804000E99B6489F
:100CD000806801F079FF210002F056F804000F99B6
:100CE000B148C06801F070FF210002F04DF8040027
:100CF0003000310001F068FF81463800390001F012
:100D000063FF494602F040F881464046414601F003
:100D10005BFF494602F038F881462000210001F0CF
:100D200053FF494602F030F801F0C4FA02F072F8BD
:100D300001F074FBDFF8501E08603000DFF8481E39
:100D4000096801F079FE984908603800DFF8381E1C
:100D5000096801F071FE944948604046DFF8281E9A
:100D6000096801F069FE904988602000DFF8181ECC
:100D7000096801F061FE8C49C8608B4806688A48A2
:100D800047688948D0F808808748C4683000310037
:100D900001F01AFF81463800390001F015FF49467D
:100DA00001F0F2FF81464046414601F00DFF01008F
:100DB000484601F075FF81462000210001F004FF44
:100DC0000100484601F06CFFDFF8C81C08603800DD
:100DD000414601F0F9FE81463000210001F0F4FEA9
:100DE0000100484601F05CFF5FF0804101F0ECFE3D
:100DF000DFF8A01C48603800210001F0E5FE8146C4
:100E00003000414601F0E0FE494601F0BDFF5FF0D1
:100E1000804101F0D9FEDFF87C1C88603800414633
:100E200001F0D2FE81463000210001F0CDFE49469E
:100E300001F0AAFF5FF0804101F0C6FEDFF8541C0C
:100E4000C8603000310001F0BFFE81463800390033
:100E500001F0BAFE0100484601F022FF81464046FB
:100E6000414601F0B1FE494601F08EFF8146200067
:100E7000210001F0A9FE0100484601F011FFDFF852
:100E8000141C08614046210001F09EFE814630009E
:100E9000390001F099FE0100484601F001FF5FF0C2
:100EA000804101F091FEDFF8EC1B48613800210021
:100EB00001F08AFE81463000414601F085FE0100C6
:100EC000484601F0EDFE5FF0804101F07DFEDFF865
:100ED000C41B88614046210001F076FE8146300047
:100EE000390001F071FE494601F04EFF5FF080418C
:100EF00001F06AFEDFF89C1BC8613000310001F090
:100F000063FE81463800390001F05EFE010048466C
:100F100001F0C6FE81464046414601F055FE010003
:100F2000484601F0BDFE81462000210001F04CFE44
:100F3000494601F029FFDFF85C1B0862DFF8540B1B
:100F400000682860DFF84C0B40686860DFF8440BED
:100F50008068A860DFF83C0BC068E860DFF8340BFD
:100F600000692861DFF82C0B40696861DFF8240B09
:100F70008069A861DFF81C0BC069E861DFF8140B19
:100F8000006A28625FF0000922E000BFB003002081
:100F9000AC030020CAC342AD69DE913F900300203C
:100FA00094030020980300202C0300200000F03F51
:100FB00094F6065F984C953F0000E0BF0000E03FCC
:100FC00028A800A951F8291040F8291019F10109A1
:100FD000B9F1100FF4DBDFF8100E01685FF080400C
:100FE00001F0F2FDDFF8041E096801F0EDFD814615
:100FF000DFF8F40DC1685FF0804001F0E5FDDFF837
:10100000F01D096801F0E0FD494601F0BDFE814692
:10101000DFF8D40D81685FF0804001F0D5FDDFF886
:10102000D41D096801F0D0FD0100484601F038FEEA
:101030001090DFF8B40D41685FF0804001F0C4FD0E
:10104000DFF8A81D096801F0BFFD8146DFF8980DA3
:1010500081685FF0804001F0B7FDDFF8941D0968FA
:1010600001F0B2FD494601F08FFE8146DFF8780DB0
:10107000C1685FF0804001F0A7FDDFF8781D0968C6
:1010800001F0A2FD494601F07FFE1190DFF8580DF6
:1010900081685FF0404001F097FDDFF8501D09685E
:1010A00001F092FD8146DFF8400D41685FF080401D
:1010B00001F08AFDDFF8381D096801F085FD494619
:1010C00001F062FE8146DFF8200D01685FF080408C
:1010D00001F07AFDDFF81C1D096801F075FD0100C3
:1010E000484601F0DDFD1290DFF8FC0CC1685FF0AE
:1010F000404001F069FDDFF8F41C096801F064FD6F
:101100008146DFF8E40C01685FF0804001F05CFD8F
:10111000DFF8DC1C096801F057FD494601F034FE98
:101120008146DFF8C40C41685FF0804001F04CFD5F
:10113000DFF8C01C096801F047FD494601F024FEB4
:101140001390DFF8A40CC1685FF0404001F03CFD53
:10115000DFF8981C096801F037FD8146DFF8880C3C
:1011600001685FF0804001F02FFDDFF8841C096802
:1011700001F02AFD494601F007FE8146DFF8680CC0
:1011800041685FF0804001F01FFDDFF8681C0968CE
:1011900001F01AFD494601F0F7FD1490DFF8480C04
:1011A00081685FF0804001F00FFDDFF8401C0968A6
:1011B00001F00AFD8146DFF8300C41685FF08040A5
:1011C00001F002FDDFF8281C096801F0FDFC0100B8
:1011D000484601F065FD8146DFF80C0C01685FF0C0
:1011E000804001F0F1FCDFF80C1C096801F0ECFC18
:1011F000494601F0C9FD1590DFF8EC0B41685FF03E
:10120000804001F0E1FCDFF8E41B096801F0DCFC40
:101210008146DFF8D40B81685FF0804001F0D4FC98
:10122000DFF8CC1B096801F0CFFC494601F0ACFDAA
:101230008146DFF8B40BC1685FF0804001F0C4FC68
:10124000DFF8B01B096801F0BFFC494601F09CFDC6
:101250001690DFF8940B01685FF0404001F0B4FC99
:10126000DFF8881B096801F0AFFC8146DFF8780BD6
:10127000C1685FF0804001F0A7FCDFF8741B0968CB
:1012800001F0A2FC0100484601F00AFD8146DFF8AA
:10129000580B81685FF0804001F096FCDFF8541B2A
:1012A000096801F091FC494601F06EFD1790DFF8E6
:1012B000380B81685FF0804001F086FCDFF82C1B62
:1012C000096801F081FC8146DFF81C0B41685FF082
:1012D000804001F079FCDFF8181B096801F074FC0C
:1012E0000100484601F0DCFC8146DFF8FC0A016899
:1012F0005FF0804001F068FCDFF8F81A096801F03F
:1013000063FC494601F040FD1890DFF8DC0AC16833
:101310005FF0804001F058FCDFF8D01A096801F056
:1013200053FC8146DFF8C00A01685FF0804001F09D
:101330004BFCDFF8BC1A096801F046FC0100484686
:1013400001F0AEFC8146DFF8A00A41685FF0804002
:1013500001F03AFCDFF89C1A096801F035FC010045
:10136000484601F09DFC1990DFF87C0A01685FF0A7
:10137000804001F029FCDFF8741A096801F024FCB0
:101380008146DFF8640AC1685FF0804001F01CFC10
:10139000DFF85C1A096801F017FC494601F0F4FC1B
:1013A0008146DFF8440A81685FF0804001F00CFC60
:1013B000DFF8401A096801F007FC0100484601F017
:1013C0006FFC1A90DFF8200A41685FF0804001F05E
:1013D000FBFBDFF8181A096801F0F6FB8146DFF81D
:1013E000080A81685FF0804001F0EEFBDFF8001A28
:1013F000096801F0E9FB494601F0C6FC8146DFF8C7
:10140000E809C1685FF0804001F0DEFBDFF8E41915
:10141000096801F0D9FB494601F0B6FC1B90DFF8E2
:10142000C80901685FF0804001F0CEFBDFF8781C4E
:10143000096801F0C9FB8146DFF8AC09C1685FF0BB
:10144000804001F0C1FBDFF8641C096801F0BCFBBF
:10145000494601F099FC8146DFF88C0981685FF00C
:10146000804001F0B1FBDFF8481C096801F0ACFBDB
:101470000100484601F014FC1C90DFF86C0941683B
:101480005FF0804001F0A0FBDFF81C1C096801F050
:101490009BFB8146DFF8500981685FF0804001F0D6
:1014A00093FBDFF8081C096801F08EFB494601F048
:1014B0006BFC8146DFF83009C1685FF0804001F0C5
:1014C00083FBDFF8EC1B096801F07EFB494601F065
:1014D0005BFC1D90DFF8100981685FF0404001F06F
:1014E00073FBDFF8C41B096801F06EFB8146DFF86F
:1014F000F80841685FF0804001F066FBDFF8AC1B44
:10150000096801F061FB494601F03EFC8146DFF8C5
:10151000D80801685FF0804001F056FBDFF8901BAF
:10152000096801F051FB0100484601F0B9FB1E902B
:10153000DFF8B408C1685FF0404001F045FBDFF818
:10154000681B096801F040FB8146DFF89C080168D0
:101550005FF0804001F038FBDFF8501B096801F0B4
:1015600033FB494601F010FC8146DFF87C084168F6
:101570005FF0804001F028FBDFF8341B096801F0C0
:1015800023FB494601F000FC1F90DFF85C08C168AE
:101590005FF0404001F018FBDFF80C1B096801F018
:1015A00013FB8146DFF8400801685FF0804001F0DE
:1015B0000BFBDFF8F81A096801F006FB494601F059
:1015C000E3FB8146DFF8200841685FF0804001F0CE
:1015D000FBFADFF8DC1A096801F0F6FA494601F077
:1015E000D3FB2090DFF8000881685FF0804001F0B5
:1015F000EBFADFF8B41A096801F0E6FA8146DFF881
:10160000E80741685FF0804001F0DEFADFF89C1ADD
:10161000096801F0D9FA0100484601F041FB814612
:10162000DFF8C40701685FF0804001F0CDFADFF811
:10163000801A096801F0C8FA494601F0A5FB21901B
:10164000DFF8A40741685FF0804001F0BDFADFF8E1
:10165000581A096801F0B8FA8146DFF88C078168EA
:101660005FF0804001F0B0FADFF8401A096801F03D
:10167000ABFA494601F088FB8146DFF86C07C16888
:101680005FF0804001F0A0FADFF8241A096801F049
:101690009BFA494601F078FB2290DFF84C0701687D
:1016A0005FF0404001F090FADFF8FC19096801F0A2
:1016B0008BFA8146DFF83007C1685FF0804001F0A7
:1016C00083FADFF8E819096801F07EFA010048465C
:1016D00001F0E6FA8146DFF8100781685FF080408C
:1016E00001F072FADFF8C819096801F06DFA49468D
:1016F00001F04AFB2390DFF8F00681685FF080403C
:1017000001F062FADFF8A019096801F05DFA81467C
:10171000DFF8D40641685FF0804001F055FADFF849
:101720008C19096801F050FA0100484601F0B8FA36
:101730008146DFF8B40601685FF0804001F044FAAA
:10174000DFF86C19096801F03FFA494601F01CFB0B
:101750002490DFF89406C1685FF0804001F034FA0D
:10176000DFF84419096801F02FFA8146DFF878069E
:1017700001685FF0804001F027FADFF8301909684E
:1017800001F022FA0100484601F08AFA8146DFF8AA
:10179000580641685FF0804001F016FADFF8101932
:1017A000096801F011FA0100484601F079FA259024
:1017B000DFF8340601685FF0804001F005FADFF8D9
:1017C000E818096801F000FA8146DFF81C06C168D4
:1017D0005FF0804001F0F8F9DFF8D018096801F0F7
:1017E000F3F9494601F0D0FA8146DFF8FC0581683B
:1017F0005FF0804001F0E8F9DFF8B418096801F003
:10180000E3F90100484601F04BFA2690DFF8D805CD
:1018100041685FF0804001F0D7F9DFF88C18096863
:1018200001F0D2F98146DFF8C00581685FF08040A1
:1018300001F0CAF9DFF87418096801F0C5F94946E2
:1018400001F0A2FA8146DFF8A005C1685FF0804090
:1018500001F0BAF9DFF85818096801F0B5F94946FE
:1018600001F092FA27902968DFF88005006801F0FE
:10187000ABF90100DAF8000001F012FA8146E968DC
:10188000DFF86C05006801F09FF90100484601F09F
:1018900007FA8146A969DFF85C05006801F094F950
:1018A0000100484601F0FCF9DFF808180860696893
:1018B000DFF83805006801F087F90100DAF8040064
:1018C00001F0EEF981462969DFF82405006801F08E
:1018D0007BF90100484601F0E3F98146E969DFF848
:1018E0001405006801F070F90100484601F0D8F9CC
:1018F000DFF8C0174860A968DFF8F004006801F05D
:1019000063F90100DAF8080001F0CAF98146696953
:10191000DFF8DC04006801F057F90100484601F0E7
:10192000BFF98146296ADFF8CC04006801F04CF960
:101930000100484601F0B4F9DFF878178860DDF857
:1019400014912968DFF86007006801F03DF9010093
:10195000D9F8000001F0A4F98246E968DFF84C07E5
:10196000006801F031F90100504601F099F9824612
:10197000A969DFF83C07006801F026F9010050462C
:1019800001F08EF9DFF82C17C8606968DFF81807D6
:10199000006801F019F90100D9F8040001F080F99C
:1019A00082462969DFF80407006801F00DF901009B
:1019B000504601F075F98246E969DFF8F4060068DF
:1019C00001F002F90100504601F06AF9DFF8E4166F
:1019D0000861A968DFF8D006006801F0F5F8010099
:1019E000D9F8080001F05CF981466969DFF8BC06A6
:1019F000006801F0E9F80100484601F051F981461C
:101A0000296ADFF8AC06006801F0DEF801004846FC
:101A100001F046F9DFF89C1648615FF000090BE021
:101A2000DFF89406002140F82910DFF89006002125
:101A300040F8291019F10109B9F1040FF0DB5846FB
:101A4000DFF87C1600F0E6FF05D95846DFF874167B
:101A500000F0CEFF03D2DFF8700601210160DFF84D
:101A60006C06006801280DD1DFF84C060190DFF804
:101A700060060090DFF8443610AADFF8381628A870
:101A800001F040FADFF84006002101605FF0000934
:101A900012E000BFD8020020DFF8200650F829002D
:101AA000DFF8141651F8291001F06EF9DFF80C1662
:101AB00041F8290019F10109B9F1040FECDBDFF855
:101AC000FC050068310001F05FF90600DFF8EC0565
:101AD0004068390001F058F90700DFF8E005806838
:101AE000414601F051F98046DFF8D005C068210079
:101AF00001F04AF904003000310001F065F8814638
:101B00003800390001F060F8494601F03DF981469E
:101B10004046414601F058F8494601F035F9814602
:101B20002000210001F050F8494601F02DF900F0A5
:101B3000C1FB01F06FF900F071FC1349086030003F
:101B40001149096800F078FFA749086038000E497C
:101B5000096800F071FFA449486040460A490968D5
:101B600000F06AFFA049886020000749096800F07A
:101B700063FF9D49C8609C4806689B4847689A482F
:101B8000D0F80880984801E09C030020C468300029
:101B9000310001F019F881463800390001F014F8DD
:101BA000494601F0F1F881464046414601F00CF803
:101BB0000100484601F074F881462000210001F040
:101BC00003F80100484601F06BF8DFF808150860DB
:101BD0003800414600F0F8FF81463000210000F057
:101BE000F3FF0100484601F05BF85FF0804100F030
:101BF000EBFFDFF8E01448603800210000F0E4FF5C
:101C000081463000414600F0DFFF494601F0BCF854
:101C10005FF0804100F0D8FFDFF8B814886038002A
:101C2000414600F0D1FF81463000210000F0CCFF9A
:101C3000494601F0A9F85FF0804100F0C5FFDFF8E8
:101C40009414C8603000310000F0BEFF81463800B7
:101C5000390000F0B9FF0100484601F021F8814643
:101C60004046414600F0B0FF494601F08DF88146FC
:101C70002000210000F0A8FF0100484601F010F804
:101C8000DFF8501408614046210000F09DFF8146B6
:101C90003000390000F098FF0100484601F000F8DC
:101CA0005FF0804100F090FFDFF8281448613800B1
:101CB000210000F089FF81463000414600F084FF9A
:101CC0000100484600F0ECFF5FF0804100F07CFF2F
:101CD000DFF8001488614046210000F075FF81465E
:101CE0003000390000F070FF494601F04DF85FF018
:101CF000804100F069FFDFF8DC13C861300031007B
:101D000000F062FF06003800390000F05DFF0100BE
:101D1000300000F0C5FF06004046414600F054FF89
:101D20000100300000F0BCFF06002000210000F0A0
:101D30004BFF310001F028F8DFF898130862DFF854
:101D4000940300682860DFF88C0340686860DFF85F
:101D500084038068A860DFF87C03C068E860DFF86F
:101D6000740300692861DFF86C0340696861DFF87B
:101D700064038069A861D748C069E861D548006AF2
:101D80002862D448806990F0004000F093FA00F097
:101D9000C9FA00F043FB8246479CC4F804A0286AB5
:101DA00000F088FA02000B0016001F00E86900F03E
:101DB00081FA32003B0000F079FB00F02FFBA060BD
:101DC000286800F077FA02000B0016001F00E86890
:101DD00000F070FA32003B0000F068FB00F01EFBE0
:101DE00020603BB0BDE8F08F2C030020A40300204E
:101DF000A8030020A80000202DE9F04FADF2745D8B
:101E00000DF5A660402101F001F80DF59E6040211E
:101E100000F0FCFF0DF59660402100F0F7FF5FF049
:101E2000000900260027C8A84FF4C87100F0EEFF93
:101E300064A84FF4C87100F0E9FF00A84FF4C8711E
:101E400000F0E4FF5FF00008002400255FF0000BC5
:101E50005FF0000A7EE0A04801F04EFA9F489E49DC
:101E6000096801609D489C49496841609B489A49BE
:101E7000896881600DF5A6609849096840F82B10C3
:101E80000DF59E609549496840F82B100DF5966058
:101E90009249896840F82B100DF5A66050F82B0088
:101EA00001F06CFA494600F06FFF81460DF59E6027
:101EB00050F82B0001F062FA310000F065FF0600D7
:101EC0000DF5966050F82B0001F058FA390000F03B
:101ED0005BFF07001BF1010BBBF1100FBBDB48469A
:101EE00000F0E8F900227E4B00F06EFB00F096FA5D
:101EF000C8A941F82A00300000F0DCF90022784B34
:101F000000F062FB00F08AFA64A941F82A00380068
:101F100000F0D0F90022724B00F056FB00F07EFA80
:101F200000A941F82A00C8A850F82A00414600F04C
:101F30002BFF804664A850F82A00210000F024FFFF
:101F4000040000A850F82A00290000F01DFF050039
:101F50001AF1010ABAF1640F06DA5FF000090026EF
:101F600000275FF0000BB7E7404600F0A3F95D4A99
:101F70005D4B00F029FB00F051FA8046200000F094
:101F800099F9584A584B00F01FFB00F047FA04003B
:101F9000280000F08FF9534A534B00F015FB00F076
:101FA0003DFA05005148C0F800805148046051488E
:101FB00005605148006800F07DF9504A504B00F030
:101FC00003FB04000D004C48006800F073F9220088
:101FD0002B0000F0F9FA00F021FA4A49086046485F
:101FE000006800F067F9454A454B00F0EDFA04003F
:101FF0000D004148006800F05DF922002B0000F060
:10200000E3FA00F00BFA3F4948613B48006800F0F2
:1020100051F93A4A3A4B00F0D7FA04000D0036481D
:10202000006800F047F922002B0000F0CDFA00F024
:10203000F5F9344988623048006800F03BF92F4ACE
:102040002F4B00F0C1FA04000D002B48006800F08F
:1020500031F922002B0000F0B7FA00F0DFF929492E
:10206000C863294829490160274828494161264811
:102070002649816224482549C163154823490160E6
:1020800013482249C1611248204981631048204900
:1020900041650F481E4901670D481D49C0F88C1065
:1020A0000DF2745DBDE8F08F8803002084030020EA
:1020B0008C030020140300204C0300203C0300206C
:1020C0006766A63F3433333FB4030020B0030020DB
:1020D00004010020D80200205C03002068030020D7
:1020E0000000B03F7B14AE47E17A843FB803002084
:1020F000BC030020C0030020A400002082E2C79897
:10210000BB96603F980200205802002017B7D138D4
:1021100017B7D1392DE9F84305000E00170098468E
:10212000B124A52001F09CFA5A2001F099FA102060
:1021300001F096FAA12001F093FA002D01D5D5F512
:1021400000455FEA25295FFA89F9484601F088FAD7
:102150005FFA89F919EB0404A9465FFA89F9484640
:1021600001F07EFA5FFA89F919EB0404002E01D51B
:10217000D6F500465FEA26295FFA89F9484601F05C
:102180006FFA5FFA89F919EB0404B1465FFA89F92D
:10219000484601F065FA5FFA89F919EB0404002F4B
:1021A00001D5D7F500475FEA27295FFA89F9484644
:1021B00001F056FA5FFA89F919EB0404B9465FFA9F
:1021C00089F9484601F04CFA5FFA89F919EB0404E1
:1021D000B8F1000F01D5D8F500485FEA28295FFA69
:1021E00089F9484601F03CFA5FFA89F919EB0404D1
:1021F000C1465FFA89F9484601F032FA5FFA89F977
:1022000019EB0404089D002D01D5D5F500455FEAC2
:1022100025295FFA89F9484601F022FA5FFA89F91F
:1022200019EB0404A9465FFA89F9484601F018FA47
:102230005FFA89F919EB0404099D002D01D5D5F544
:1022400000455FEA25295FFA89F9484601F008FA56
:102250005FFA89F919EB0404A9465FFA89F948463F
:1022600001F0FEF95FFA89F919EB04044FF480716B
:10227000B4FBF1F000FB114001F0F2F9AA2001F0EB
:10228000EFF9BDE8F18310B450F8041B81B1026886
:102290001218001D50F8043BDC0744BFA9F10104EB
:1022A000E31852F8044B43F8044B091FF9D1EBE74C
:1022B00010BC70475FF0FF0C1CEAD05114BF6145A1
:1022C00006E0C110400721F0E04101F16051704784
:1022D00079B900F0004100020AD0B0FA80FC00FA9F
:1022E0000CF001F16051A1EB0C5101EBD021400544
:1022F000704741020CBF40F4E0016FF00001002084
:10230000704750F8041B61B150F8042BD30744BF49
:10231000A9F101039A18002342F8043B091FFAD1DE
:10232000EFE770472DE9704883B004460D46C5F3CA
:102330000A5240F2FF76B24210D0002A04BF2803AE
:1023400054EA10300ED020460022002301F0F2F9AA
:102350003ABF85F000450826002605E0280354EA28
:102360001030F0D0204655E02946234A234B01F097
:10237000E1F91AD2DFF888B00020594622462B46F0
:1023800000F068FACDE9000100225B4620462946AC
:1023900000F0ECF9DDE9002300F016F900F03AFD59
:1023A00002460B46204629461DE00122144B01F04F
:1023B000C1F927D29B460020594622462B4600F001
:1023C00049FACDE9000100225B462046294600F08B
:1023D000CDF9DDE9002300F0F7F800F01BFD86F0F1
:1023E000020622462B4601F0BDF9324603B0BDE895
:1023F000704801F0DDBA00BFCE3B7F669EA0E63F8D
:102400000000F03F01F0C4FB212101604FF0FF30DC
:102410006FF0004103B0BDE8708800004FEAF17C26
:10242000BCF1E04C2CBFBCF5001F11E05FEA4C0C86
:1024300034BFBCF17F5F2EE05FEA9C0C4FEA0C1CBE
:102440004FEA3C0CC10071F100414CEB50707047F9
:10245000C90241EA5051C00218BF41F0010141F0E8
:1024600000414FEA6C50C0F10900212810D240EA27
:10247000CC7CCCF1200C11FA0CF070F10040CCF1C6
:10248000200C21FA0CF00CF0004C40EB0C007047D3
:102490004FEACC707047490011F5001F04D84FEA8D
:1024A000CC10FF30C0057047C817704738B50FB45F
:1024B000DDE90201C1F30A5340F2FF7293420BD0EF
:1024C00013B14FF0FF350DE0090350EA11300CBF96
:1024D00000256FF0010505E0090350EA113014BF33
:1024E00002250125DDE90001C1F30A53934217D00B
:1024F00073B14FF0FF32012D1ADA019800281DD573
:10250000DDE9000181F00041CDE90001082416E079
:10251000090350EA11300CBF00226FF00102EAE714
:10252000090350EA113018BFDDE9000142D1012250
:10253000022D25D1DDE9020105B030BD002403984C
:10254000002807D5DDE9020181F00041CDE9020153
:1025500084F00604DDE90201DDE9002301F0EAF878
:1025600002D201F0FFF81DE0002D06D5DDE90001E3
:10257000DDE9022301F0F6F816E00020002113E067
:10258000954207BF00200C4900200021019B002B31
:102590004CBF08240024039B002B48BF84F0060492
:1025A000012A01D184F00204224605B0BDE8304082
:1025B00001F0FEB905B030BD0000F03F012201F08E
:1025C000EDBA002201F0EABAB0B581EA030C0CF0D2
:1025D000004C40F2FF7515EA11541DBF15EA135760
:1025E000AC42AF4239E0E41923EA455343F4801387
:1025F000C90241F0004141EA505EC7021100A7FB49
:10260000020200284FF00000EEFB01204FF0000115
:10261000E3FB072118BF42F00102401800214941A5
:10262000E3FB0E01A4F580640F0302D25200404187
:10263000494154F101046CDD470872F1004250F148
:10264000000051EB0451A1F580115CBF41EA0C017F
:10265000B0BD4CEA05510020B0BD05EA1357AC42AD
:1026600014BFAF4241E050EA410E1CBF52EA430E94
:1026700002E061460020B0BD24423C441BD15FEA29
:10268000070EF6D0090302BF01460020AEF1140E7A
:10269000B1FA81F7AEEB070401FA07FE0C37C7F178
:1026A000200100FA07F7C8404EEA000E23EA45531E
:1026B00043F48013A2E733F00043B3FA83F704BF77
:1026C000B2FA82FE77440B3FE41BB7F1200E2FBF16
:1026D00002FA0EF3BB40C7F1200E22FA0EFE38BFFD
:1026E00043EA0E03BA40641C82E750EA410E14BF6D
:1026F00052EA430E6FF000014FF4001717EB430F3F
:102700008ABF194617EB410FB5E74CEA0551002087
:10271000B0BDD4F10104B4F120070FDAC4F12007F1
:10272000520828BF42F0010210FA07F501FA07F734
:10273000E1BF2A43E0403843E1400FE0352C98DC0C
:10274000C7F1200452EA400220FA07F218BF42F013
:10275000010231FA07F0A1400A43002172F1004260
:1027600050F1000051EB0C01B0BD000070B44FF00F
:10277000004591EA030C44BF6B4000F075B800BF00
:10278000841A71EB030603D2001BB1411219734185
:102790004FF4001C1CEB410F34BF7CEB430443E0BF
:1027A0000C0DA4EB1356352E50DC45EAC323DB0A8F
:1027B00045EAC121C912B6F120050DDD63FA05F61F
:1027C000EB4086EA0305124218BF45F00105C01828
:1027D00051F100010CD213E062FA06F5F2405540C7
:1027E000F3415A40B340F3405A408018594107D34F
:1027F00049085FEA30005FEA350528BF45F001056A
:1028000001F58011420875F1004250F1000041EBE2
:10281000045170BC4FF4001C1CEB410F38BF7047D3
:102820000020090D090570471CEB410F10D252EA38
:1028300043060BD0BCEB410F05D80C0DAB43661E15
:10284000342EB5DD02E0AB438018594170BC7047AF
:1028500070BC704770B44FF0004591EA030F44BF5D
:102860006B40FFF78DBF00BF841A71EB030604D2E3
:102870006E40001BB141121973414FF4001C1CEB58
:10288000410F34BF7CEB430684E00C0DA4EB1356E0
:10289000362E7DDC012E43DC45EAC32343EA525346
:1028A00012BFD20292025B08240545EAC12141EA27
:1028B0005051D2EBC020994125D407D1B0FA80F60F
:1028C00010FA06F164D00020203608E0B1FA81F653
:1028D000B140C6F1200220FA02F21143B0404FEAA3
:1028E000F474B4EB465434F001064FEA74040AD889
:1028F000D6F50016760D04F00044F04061FA06F2B9
:102900005040F1404840C00A40EA415021F00041A7
:1029100028BF5FEA500550F1000044EBD12137E0B9
:1029200045EAC323DB0A45EAC121C90AB6F12005FD
:102930000EDD42EA0242120CC5F1200603FA06F649
:10294000EB4042EA06056D42984161F100010DE05D
:1029500062FA06F5F240554063FA06FC82EA0C0280
:10296000F3405A406D42904161EB030111F4801F26
:1029700005D1641E620502D06D004041494121F439
:102980008011430875F1004350F1000041EB045100
:1029900070BC70471CEB410F15D223F0004352EA84
:1029A00043060BD04FEA4C0CBCEB410F04D80C0D86
:1029B000661E342EB7DDEBE7801A994150EA4106D6
:1029C00008BF0021E4E708BF1CEB430F28BF6FF0EE
:1029D0000001DDE740EA010C5FEA4C0C07D08842B9
:1029E00005D14FEA400C1CF1807F98BF80427047B0
:1029F0004FF0807C1CEB400F94BF1CEB410F05E0B7
:102A000040EA010C5FEA4C0C01D28842704718BFC3
:102A1000814270474FF0807C1CEB400F94BF1CEB51
:102A2000410F05E040EA010C5FEA4C0C01D2814203
:102A3000704718BF8842704710B5FF2313EAD0547F
:102A40001DBF13EAD1529C429A4239E0A41ADA0718
:102A500080EA0103134042EA012142EA0020421ABF
:102A60003CBF641E01EB4202090AB2FBF1FE01FB0E
:102A70001E221202B2FBF1F001FB10226EF30F20B6
:102A80001202B2FBF1FE4EEA00207F3406DDFE2C7E
:102A900024DA53EA500050EBC45010BDD4F10204C4
:102AA00001FB1E2240F08071192C1DDC21FA04F07C
:102AB000C4F12004A140114371F10042584110BDFE
:102AC0009C421ABF03EAD1529A420FE080EA010EFB
:102AD0000EF00043400004D0490016D143F0FF40FF
:102AE00010BD490008BFD343180010BD9C4205D15A
:102AF000D21AF7D001F00041484010BD4A0212BF7F
:102B00000846484000F0004010BD4AB90902B1FA39
:102B100081F2914044B1A418C00140F000409EE70A
:102B2000C90141F0004152420002B0FA80F4A040D5
:102B3000141B94E713B5C1F30A5240F2FF74A2428A
:102B400008D0002A04BF090350EA11300ED1DDE994
:102B500000011CBD090350EA1130F8D1019800288A
:102B6000154801D515491CBD15491CBDDDE90001FD
:102B70000022002300F0DEFD3DBF81F00041CDE9E1
:102B8000000108240024DDE9000101220D4B01F0C1
:102B90001BFA09D800201946DDE9002300F0E2FD08
:102BA000CDE9000184F002042246DDE9000102B013
:102BB000BDE8104000F0FCBE182D4454FB21F9BFC5
:102BC000FB21F93F0000F03FFF2212EAD05C1DBF5D
:102BD00012EAD153944593422BE09C44D30780EAF8
:102BE00001021A4043EA002043EA0121A1FB003020
:102BF000410038BF40007CF17F010BDBFE294ADA3F
:102C00005B0842EAC15153EA006373F1004C51EB97
:102C100010207047D1F1080CDCF120012FDB5B089C
:102C200010FA01F10B4373F1004120FA0CF050410E
:102C3000704794451CBF02EAD153934280EA0102D7
:102C400002F000421DD0400019D0490017D05BB9F6
:102C5000634514D00902B1FA81F39940BCEB030C2F
:102C6000C00140F00040C1E70002B0FA80FC10FA59
:102C70000CF0B3EB0C0CC90141F00041B6E71000B9
:102C8000704740000AD0490008D010F1807F94BFFF
:102C900011F1807F02E042F0FF407047D04370475F
:102CA00090EA010F44BF81F0004100F075B800BF09
:102CB000431A4FF000423EBF5340C01AC91800BF2C
:102CC000D3095FEAD05C13EB400F34BFB3EB410F85
:102CD00040E07CEBD1530CD342EA012122D8D1EB66
:102CE000402009D3400A28BF5FEA500140EBCC5096
:102CF0007047401A15D04002B0FA80F2521C904042
:102D0000400A4FEA3C23B3EB026384BF00EB73003D
:102D100007E040F400001A16DB07C2F10102D040C0
:102D200018437047182BFCDC31FA03F202FA03F364
:102D3000591A38BF42F00102D2EB40203CBF40009C
:102D4000ACF1010C5FEACC5CC20572F100414CEBC6
:102D50005020704713EB400F0FD24B0009D0ACEB63
:102D6000D153022B03DB4902172BDDDD7047914362
:102D7000401A4300D5D10020704713EB410FD0D348
:102D80006FF000007047000090EA010F44BF81F02F
:102D90000041FFF78DBF00BF421A3CBF801A89185F
:102DA0004FF0004CC0F3C752FF2A24D0C1F3C753E1
:102DB00013B3D21AD2F1190327DD4CEA01214CFAE0
:102DC00003F321EA0303D140C20D4CEA002040186E
:102DD00034BF20EA0C004CEA5000D20553EA0063ED
:102DE00073EB0C0C52EB1020420012F1807F38BFC5
:102DF0007047C00DC0057047490212BF9A4200EBF0
:102E00005120F8E7D2F11703D9D57047002201F01D
:102E1000F3B8000040F2FF7C0B0D4DD0634566D245
:102E200030B421EA035141F4801103F2FD3C5FEA22
:102E30005C0C01D300184941890041EA907180007F
:102E40004FF440140023E202D50AB1F5100107D473
:102E50006D081DD2091B641900184941491BF7D59B
:102E60006D080AD20919641B00184941491BEFD5A6
:102E70006D08F7D301E0520817D0C01861419B1AC2
:102E8000AC4100184941801AA941F4D452080AD033
:102E9000C01AA1419B186C4100184941801AA941F0
:102EA000E9D45208F4D15B1C6C4161084FEA33004D
:102EB00001EB0C5130BC704750EA0103FBD030B439
:102EC000B1FA81F311B9B0FA80F41B190B3BB3F1DD
:102ED00020042FBF00FA04F19940C3F1200420FA26
:102EE00004F438BF21439840D3F101039DE76345C3
:102EF000E1D011F5801FDED850EA4101DBD0D94383
:102F000001F094B8F0B5ADF29C5D06000F0014001E
:102F10000025FFA8FF3061304021FFF777FFFFA8B1
:102F2000FF30401C6021FFF771FFFFA8C030402137
:102F3000FFF76CFFFFA880304021FFF767FFFFA875
:102F400040304021FFF762FFF7A86021FFF75EFFE6
:102F5000D3A89021FFF75AFFC3A84021FFF756FFDF
:102F6000B3A84021FFF752FF9BA86021FFF74EFF57
:102F70008BA84021FFF74AFF7BA84021FFF746FFBF
:102F800063A86021FFF742FF4BA86021FFF73EFFD7
:102F900033A86021FFF73AFF23A84021FFF736FF4F
:102FA00013A84021FFF732FF03A84021FFF72EFFAF
:102FB0008C48396801608B48796841608948B968F4
:102FC00081608848F968C16086483969016185482F
:102FD00079694161FFAB403304220421300001F0E4
:102FE0009CF8FFA8803002900420019004200090FB
:102FF0007D4B04220421300001F046F8FFA8C030C8
:1030000002900420019004200090FFAB4033042282
:103010000421FFA8803001F037F800260DE0FFA85A
:10302000C03050F82600714951F82610FFF7ACFE69
:10303000FFA9C03141F82600761C102EEFDBB3ABA0
:10304000C3AA0421FFA8C03001F0A9F9F7AB0422FC
:103050000621200001F061F88BAB04220421C3A8F3
:1030600001F05BF87BA802900420019004200090FE
:103070008BAB04220421B3A801F006F863A80290E8
:103080000620019004200090F7AB042204217BA8C5
:1030900000F0FAFF9BA80290062001900420009007
:1030A00063AB04220421C3A800F0EEFFD3A8029072
:1030B00006200190042000909BAB042206212000F2
:1030C00000F0E2FF0026DDF8B0450AE0D3A850F892
:1030D000260054F82610FFF757FED3A941F8260022
:1030E000761C242EF2DB00220621D3A801F030F852
:1030F000FFA8FF30401C029006200190062000909F
:10310000D3AB062204219BA800F0BEFF4BA802907F
:103110000620019006200090D3AB0622042163A86C
:1031200000F0B2FF33AB0622042163A800F0F5FFE4
:1031300023A80290042001900620009033AB0622C1
:1031400004214BA800F0A0FF04200090042313AA40
:1031500023A9B3A800F070FF03A8029004200190F7
:103160000420009013AB04220421C3A800F08CFFBC
:10317000FFA8FF30613002900420019004200090ED
:103180008BAB0422042103A800F07EFFDDF8B445D8
:1031900002940120019006200090124B0622042187
:1031A000FFA8FF30401C00F06FFF114800680128A5
:1031B00007D1002603E0002044F82600761C042EE8
:1031C000F9DB002608E00848FFA9FF31613151F81A
:1031D000261040F82610761C102EF4DB0DF29C5DB4
:1031E000F0BD00BFFC020020580200209802002021
:1031F000B403002080B5F1208DF80000D220012317
:1032000000AA1C21C0B201F08BFA01BD1CB504005C
:10321000D220062300AA3B21C0B201F0A9FA9DF8F2
:1032200000009DF8011051EA002020609DF8020086
:103230009DF8031051EA002060609DF804009DF89D
:10324000051051EA0020A0602068000404D5206821
:1032500048490818206001E0206820606068000488
:1032600004D5606843490818606001E060686060E8
:10327000A068000404D5A0683E490818A06001E0D9
:10328000A068A060012016BD1CB5D22400A83A4950
:103290000CC90CC00839083801230DF101021921AD
:1032A0002000C0B201F03CFA01230DF102021A2104
:1032B0002000C0B201F034FA01230DF103026B21AA
:1032C0002000C0B201F02CFA012301AA1B2120002A
:1032D000C0B201F025FA01230DF105026A21200098
:1032E000C0B201F01DFA01230DF1060237212000C2
:1032F000C0B201F015FA13BD1CB50400D22006239C
:1033000000AA4321C0B201F033FA9DF800009DF8F5
:10331000011051EA002020609DF802009DF8031082
:1033200051EA002060609DF804009DF8051051EA04
:103330000020A0602068000404D520680D4908180A
:10334000206001E0206820606068000404D56068A7
:1033500008490818606001E060686060A0680004C7
:1033600004D5A06803490818A06001E0A068A06027
:1033700013BD00000100FFFF14730008002840F196
:103380000980F446404200F005F850F000406047E4
:10339000002800BF0AD0B0FA80F18840D1F19D0129
:1033A000C905020672F1004241EB1020704700008F
:1033B00080B5092000F04EF800F09FF85FF4E1318D
:1033C000DFF8200300F0DFF801F036F901BDDFF887
:1033D000180300210160DFF8140300210160DFF809
:1033E000100314210160DFF80C0300210160DFF8F5
:1033F000080300210160DFF80403006850F00100B9
:10340000DFF8F8120860DFF8F8020068DFF8F4125D
:103410000840DFF8EC120860DFF8E0020068DFF82F
:10342000E8120840DFF8D4120860DFF8D002006824
:1034300030F48020DFF8C4120860DFF8C4020068AE
:1034400030F4FE00DFF8B8120860DFF8C002002197
:103450000160704738B504000025FFF7B8FFDFF8BA
:103460009C02006850F48030DFF890120860DFF8AA
:103470008C020068400C0028F9D0DFF884024FF479
:1034800080610160A41EDFF878020068E4B250EAAF
:103490008440DFF86C120860DFF86402006850F4C2
:1034A0008030DFF85C120860DFF86402006850F0DA
:1034B0003200DFF85C120860DFF84002006850F06C
:1034C0008070DFF838120860DFF830020068400EC4
:1034D0000028F9D0DFF82802006850F00200DFF879
:1034E0002012086005E0DFF818020068850815F072
:1034F0000305EDB2022DF6D131BD7E48006850F0D3
:1035000008007C4908607B48006850F04000794919
:10351000086080480068000A00027E4908607D4813
:10352000006850F033007B4908607B480068000A5F
:103530000002794908607848006850F03300764905
:1035400008607448006830F470207249086071485F
:10355000006850F480206F490860704780B54FF4D0
:10356000A06001F05FF91C208DF8000000208DF8AC
:10357000010000208DF8020001208DF8030000A852
:1035800001F055F901BD70B582B004000D00594835
:10359000006850F00400574908605648006850F42D
:1035A0008040544908605348006850F00100514978
:1035B00008605A48006830F47F60584908605748EE
:1035C000006850F49660554908604848006850F417
:1035D0008040464908604548006830F480404349CF
:1035E00008604FF40070ADF8000018208DF803005B
:1035F00003208DF8020000A9494801F055F94FF465
:103600008060ADF8000004208DF8030000A9444854
:1036100001F04AF92801FFF7BBFE01004148FFF71E
:103620000BFA0600300001F0B5F90500ADB2280034
:10363000FFF7AEFE01003000FFF732FB5FF0834181
:10364000FFF7C2FA01F0A6F92D0145192089284398
:103650002081A08940F4005050F00C00A08173BD7F
:1036600080B53149C0B2088040211E4801F0BCF944
:103670000028F9D0012002BDE0B50121012001F0B0
:10368000C1F95FF0804001F0F3F92820ADF80400A3
:1036900048F69F40ADF800000020ADF8060000207D
:1036A000ADF8020000A95FF0804001F0CAFA0121E4
:1036B0005FF0804001F032FB1C48008850F00100B0
:1036C0001A49088001215FF0804001F019FB07BD15
:1036D0001749086016480068411E154A1160002805
:1036E000F8D1704700380140101002400C10024021
:1036F00014100240181002401C100240001002403A
:10370000041002400000FFF8FFFFF6FE0810024020
:1037100000200240040C0140001801400408014050
:10372000000801404054894C043801400C0000401E
:103730007C0300204FF4001C1CEB410F94BF1CEBDA
:10374000430F09E041EA030C50EA4C0C52EA0C0C1E
:1037500003D2994208BF9042704714BF8B42824205
:1037600070470000F0B540F2FF7581EA030C0CF0E1
:10377000004C15EA11541DBF15EA1357AC42AF4275
:10378000E5E0BC41C1F31301C3F31303801A99416F
:1037900043F4801304D2641E40004941801859410B
:1037A000C90241EA5051B1FBF3F603FB1611A2FB2B
:1037B0000675D7EBC020A94102D2761E8018594168
:1037C000C90241EA5051B1FBF3FE03FB1E11A2FBFB
:1037D0000E75D7EBC020A94103D2AEF1010E8018BF
:1037E0005941890241EA9051760546EA8E2EB1FB95
:1037F000F3F603FB1611A2FB0675D7EB8020A94157
:1038000002D2761E80185941C90241EA50514EEA4F
:10381000060EB1FBF3F603FB1611A2FB0675D7EB00
:10382000C020A94102D2761E80185941C90241EA3E
:103830005051B1FBF3F703FB1711A2FB0735D3EB94
:10384000C020A94167F100070CBF004247F0010703
:1038500066F3D5274FEA1E31B80814F5806412DDEF
:10386000BD0775F1004250EB0E5051EB045111F5BC
:10387000801F5CBF41EA0C01F0BD4CF07F6141F05C
:10388000E0410020F0BDBD076D0840EA0E5041F454
:103890008011D4F10104B4F120060ADAC4F1200643
:1038A0000200E04001FA06F3E1401843B24015433C
:1038B0000EE0342C13DCC6F1200445EA40056D0807
:1038C00020FA06F2154321FA06F0A1400D4300212B
:1038D00075F1004250F1000051EB0C01F0BD0020E9
:1038E0005FEA0C01F0BDCFB992185B41B3FA83F7E0
:1038F00004BFB2FA82F6BF190B3FB7F120062FBF03
:1039000002FA06F3BB40C7F1200622FA06F638BFDA
:103910003343BA401CB1E419641E33E77F4231F0EF
:103920000041B1FA81F404BFB0FA80F6A4190B3C4F
:10393000B4F120062FBF00FA06F1A140C4F1200621
:1039400020FA06F638BF3143A0403C1B1AE7AC42D0
:103950001ABF05EA1357AF4212E050EA41061CBFF6
:1039600052EA4306BFE750EA4107304661461CBFB2
:1039700041EA0551F0BD52EA430C08BFC143F0BD16
:1039800000204FF4001616EB410F98BF16EB430FC3
:1039900008BF16EB410F24BFC14305E016EB430FF0
:1039A0000CBF61464CEA0551F0BD0000000000006C
:1039B0002DE9F04D04460D4617464F4A4F4B00F097
:1039C00003FB1CD84E4EDFF83C8132464346FEF7DF
:1039D000FBFD00224C4BFEF7C9FE82468B46324669
:1039E000434620462946FEF7C1FE02460B46504696
:1039F0005946FFF7B7FE04460D4647F0010720463B
:103A000029460022414BFFF795FE05D301224FF0D6
:103A1000795300F0D9FA53D822462B46FEF7D4FD4D
:103A2000064688463246434620462946FEF7CCFDE8
:103A300082468B463648374932464346FEF7C4FD38
:103A4000354A364BFEF792FE32464346FEF7BCFD42
:103A5000334A344BFEF78AFE52465B46FEF7B4FD0E
:103A600022462B46FEF782FE04460D462E482F497D
:103A700032464346FEF7A8FD2D4A2E4BFEF776FE52
:103A800032464346FEF7A0FD2B4A2C4BFEF76EFE56
:103A900032464346FEF798FD294A2A4BFEF766FE5A
:103AA00032464346FEF790FD0022274BFEF75EFEAE
:103AB00002460B4620462946FFF754FE04460D46B3
:103AC000B80748BF85F0004517F007000BD00FF28C
:103AD000800101EBC002D2E9000122462B46FEF72D
:103AE00045FE04460D46380747BF85F00041204695
:103AF00020462946BDE8F08D57CD9E5E1426D13F65
:103B0000AA4C58E87AB6FB3F0000F0BF000040BE68
:103B1000845D57134B57B03FB2934C19ED5EE43FB1
:103B2000BEDE02B90240F83FDE39028FC7C0743FE3
:103B30008AAB1283000CC83F24D7E508B6D8F03F03
:103B40000F34580E5895FD3F0000F03F0000000074
:103B5000000000000000000066732D3852C1E03FF5
:103B6000182D4454FB21F93F66732D3852C1F03FA4
:103B7000182D4454FB21F93F66732D3852C1004083
:103B8000182D4454FB2109403FD038C6A6F104400B
:103B9000014801F0C7B800000C0400202DE9F04CEA
:103BA00083B004460D461646DFF87C03DFF87C132D
:103BB00022462B46FEF708FD07468B4621F00041C2
:103BC000DFF86C23DFF86C33FFF7B4FD80F0F3808F
:103BD00059460022002300F0F7F9104694BFDFF8A1
:103BE0005813DFF858133A465B46FEF7BFFD01F065
:103BF0009BF8070051D001F0C3F80022D04BFEF72C
:103C0000E3FC82468B464FF0A040CE4952465B46CD
:103C1000FEF7DAFC02460B4620462946FEF71AFE5E
:103C200004460D464FF0C040C74952465B46FEF77A
:103C3000CBFC02460B4620462946FEF70BFE044607
:103C40000D464FF00050C14952465B46FEF7BCFCA2
:103C500002460B4620462946FEF7FCFD04460D466B
:103C60000020BB4952465B46FEF7AEFC02460B46BF
:103C700020462946FEF7EEFD04460D464FF0005063
:103C8000B44952465B46FEF79FFC02460B4620466F
:103C90002946FEF7DFFD04460D4607F003008619AE
:103CA000204629466FF00102AB4B00F08DF90BD88E
:103CB00000224FF07953FFF73DFD05D2F00740F1A8
:103CC0002D810024A54D29E122462B46FEF77CFCE0
:103CD00007468B46F00731D5A148A2493A465B46D4
:103CE000FEF772FCA04AA14BFEF740FD3A465B4648
:103CF000FEF76AFC9E4A9F4BFEF738FD3A465B464C
:103D0000FEF762FC9C4A9D4BFEF730FD3A465B464F
:103D1000FEF75AFC9A4A9B4BFEF728FD3A465B4653
:103D2000FEF752FC6FF05102974BFEF71FFD3A462B
:103D30005B46FEF749FC0022884B37E03A465B467B
:103D400020462946FEF740FCCDE900018F48904906
:103D50003A465B46FEF738FC8E4A8F4BFEF706FD6F
:103D60003A465B46FEF730FC8C4A8D4BFEF7FEFC74
:103D70003A465B46FEF728FC8A4A8B4BFEF7F6FC78
:103D80003A465B46FEF720FC884A894BFEF7EEFC7C
:103D90003A465B46FEF718FC864A874BFEF7E6FC80
:103DA000DDE90023FEF710FC22462B46FEF7DEFC81
:103DB00004460D46B2E0C5F30A5240F2FF77BA421C
:103DC0000DD0002A04BF290354EA113015D1F007A1
:103DD00044BF0024614DB00740F1F080A0E029030A
:103DE00054EA113040F0EA80FFF7D2FE2121016051
:103DF0004FF0FF306FF00041E2E0CDE9004500A850
:103E000000F0D6FF8619DDE90045204629466FF00F
:103E10000102514B00F0D8F80AD800224FF0795334
:103E2000FFF788FC04D2F00778D500244B4D75E0ED
:103E300022462B46FEF7C8FB07468B46F00731D5D6
:103E4000474848493A465B46FEF7BEFB464A474B61
:103E5000FEF78CFC3A465B46FEF7B6FB444A454B00
:103E6000FEF784FC3A465B46FEF7AEFB424A434B04
:103E7000FEF77CFC3A465B46FEF7A6FB404A414B08
:103E8000FEF774FC3A465B46FEF79EFB6FF051026C
:103E90003D4BFEF76BFC3A465B46FEF795FB002276
:103EA0002E4B37E03A465B4620462946FEF78CFB10
:103EB000CDE90001354836493A465B46FEF784FBBA
:103EC000344A354BFEF752FC3A465B46FEF77CFB24
:103ED000324A334BFEF74AFC3A465B46FEF774FB28
:103EE000304A314BFEF742FC3A465B46FEF76CFB2C
:103EF0002E4A2F4BFEF73AFC3A465B46FEF764FB30
:103F00002C4A2D4BFEF732FCDDE90023FEF75CFB6B
:103F100022462B46FEF72AFC04460D46B0074DD537
:103F200085F0004120464BE083C8C96D305FE43F17
:103F30000000A0FFFFFFDF410000E03F0000E0BF06
:103F40000000303EFB21B941B410114026A6513E7D
:103F50005C14D33C9A833B3BFFFF3FBE0000F03F25
:103F600009260A1039BA213E3BA861C6F97D92BEE6
:103F700063AC30909F01FA3EF6FB51166CC156BF00
:103F8000B10255555555A53FFFFFDFBFB08F2FC379
:103F900010D8E53D8F0C73A1E1E55ABE4DADE44F5D
:103FA000E31DC73E3EE3B519A0012ABFFAF0101188
:103FB0001111813F425555555555C5BF20462946DB
:103FC00003B0BDE8F08C00004FF4001C1CEB410F67
:103FD00094BF1CEB430F09E041EA030C50EA4C0C80
:103FE00052EA0C0C03D28B4208BF8242704714BFC6
:103FF000994290427047000000B500BF13009646FA
:104000009446103928BFA0E80C50FAD85FEA417CEA
:1040100028BF0CC048BF40F8042BC90728BF20F8B0
:10402000022B48BF00F8012B00BD00001FB5FFF7B1
:10403000AFFD212101601FBD2DE9F04F04000D00EF
:1040400016001F005FF000085FF000095FF0000A33
:1040500000208046DDF824B00FE00BFB089A54F8EE
:104060002A0055F82A10FEF71BFE46F82A0019F11F
:104070000109D945F1D318F10108B84502D25FF022
:104080000009F6E7BDE8F08F2DE9F34F14001D009D
:10409000002600275FF000085FF0000900220023DF
:1040A0000B9800210E00DDF830A0DDF834B000E000
:1040B000761C019886422ED2002722E004FB06825D
:1040C0000AFB0873009850F822000021FEF782FCDA
:1040D00012D055F823000021FEF77CFC0CD000988C
:1040E00050F8221055F82300FEF76EFD5BF82910FA
:1040F000FEF74AFE4BF8290018F10108A045DDD370
:104100007F1C5745D4D20AFB067900204BF82900C2
:104110005FF00008F2E7BDE8F38FF0B4002400255B
:10412000002600275FF0000C64460BE001FB05460B
:1041300002FB045750F8277043F826706D1C954217
:10414000F4D3641C8C4201D20025F8E7F0BC704720
:104150002DE9F04F98B004000D005FF000085FF00B
:104160000009002600275FF0000B00200EA9039134
:104170000021029104A90191002100915FF0000A41
:1041800000210023984609E00EA8002140F82810DD
:1041900004A8002140F8281018F10108B8F10A0F0E
:1041A000F2DB002612E0B0450BD005FB086B54F89B
:1041B0002B0090F0004054F82710FEF705FD44F85E
:1041C0002B0018F10108A845EDDB761CAE4280F209
:1041D000A7805FF0000AB0461FE005FB089754F87F
:1041E0002700FEF767F831F00041FEF717F90100EC
:1041F0005046FEF7FDFB0AD28A46CDF808800398A8
:1042000040F82680CDF80090019840F8269019F1EA
:104210000109A945E1DB18F10108A84501DAB14619
:10422000F7E70298B04213D05FF000090EE005FBFB
:10423000069B029805FB009054F82B1054F82020A0
:1042400044F82B2044F8201019F10109A945EEDBB0
:104250000098B04213D05FF000080EE005FB086B39
:10426000009805FB080054F82B1054F8202044F85F
:104270002B2044F8201018F10108A845EEDB05FBBF
:10428000066754F82700FEF715F802000B0000201F
:10429000DFF87812FFF766FAFEF7C0F8010044F87D
:1042A00027105FF000090DE0B14509D005FB069B22
:1042B00054F82B0054F82710FEF786FC44F82B0026
:1042C00019F10109A945EFDB5FF000081EE0B145D7
:1042D00016D005FB089B05FB08F014EB800050F896
:1042E000260005FB06F114EB810151F82910FEF7B9
:1042F0006BFC010054F82B00FEF7D2FC44F82B00B5
:1043000019F10109A945E2DB18F10108A84504DA11
:10431000B045F9D05FF00009F4E75FF0000852E71C
:104320006E1E13E005FB086B039850F8260005FB92
:10433000080054F82B1054F8202044F82B2044F89F
:10434000201018F10108A845ECDB761E002E22D4BF
:10435000019850F82600B04215D05FF0000910E037
:1043600005FB069B019850F8260005FB009054F8C9
:104370002B1054F8202044F82B2044F8201019F179
:104380000109A945ECDB039850F82600B042DCD0C7
:104390005FF00008D7E7012018B0BDE8F08F2DE9E5
:1043A000F14F0C0015001E0000275FF000085FF0C1
:1043B000000901E019F10109A1451EDA5FF0000AC8
:1043C0000BE004FB09A0002146F8201004FB09A023
:1043D000002145F820101AF1010AA245EADAD14578
:1043E000EFD104FB09A05FF07E5145F8201004FBDB
:1043F00009A0002146F82010EDE7B4F1010A04FB02
:104400000AA004FB0AA1009A52F8211046F82010D5
:104410005FF0000910E004FB09AB04FB09A0009960
:1044200051F8200004FB0AA156F82110FEF704FB06
:1044300045F82B0019F10109A145ECDBB4F1020AA2
:1044400001E0BAF1010ABAF1000F5DD41AF1010BD3
:1044500015E004FB0BB056F8200004FB0AB155F838
:104460002110FEF7B1FB04FB0AB155F82110FEF74D
:10447000ABFB4146FEF788FC80461BF1010BA345D0
:10448000E7DB04FB0AA904FB0AA0009951F820000D
:104490004146FEF705FC46F829005FF000085FF092
:1044A00000092CE004FB0BB056F8200004FB09B116
:1044B00055F82110FEF788FB04FB0AB155F82110CE
:1044C000FEF782FB3900FEF75FFC07001BF1010BD2
:1044D000A345E7DB04FB09AB04FB09A0009951F8F5
:1044E00020003900FEF7DCFB04FB0AA156F821107E
:1044F000FEF7A2FA45F82B00002719F10109D14572
:104500009FDA1AF1010BE3E7BDE8F18F0000F03FFD
:1045100080B58020ADF8000010208DF80300032046
:104520008DF8020000A97C4800F0BEF901BD80B5FD
:104530008020ADF8000004208DF8030000A9764823
:1045400000F0B2F901BD80B5FFF7E2FF80217248AB
:1045500000F01AFA4021704800F016FA0420FFF724
:10456000B7F880216C4800F012FA0420FFF7B0F889
:104570004021694800F00BFA01BD80B5FFF7C8FF84
:104580004021654800F003FA8021634800F0FFF9FC
:104590000420FFF79DF840215F4800F0F5F9042062
:1045A000FFF796F880215C4800F0EEF901BD10B5E8
:1045B0000400FFF7ADFFE4B2002C04D08021564880
:1045C00000F0E2F903E08021534800F0E0F94021D7
:1045D000514800F0D9F90520FFF77AF840214E48FC
:1045E00000F0D5F90220FFF773F810BD10B54FF4B5
:1045F00096748021484800F0C7F9FFF798FF012022
:10460000FFF766F84021444800F0BEF90120FFF7AB
:104610005FF88021404800F0ACF9002806D0641E05
:10462000002CF6D0FFF7A9FF012004E040213A4812
:1046300000F0ADF9002010BD80B53848006850F09A
:10464000080036490860344800680002000A324910
:1046500008603148006850F04C502F490860FFF75F
:1046600057FF80212C4800F08FF940212A4800F0A4
:104670008BF901BD38B50400FFF74AFF40212648F9
:1046800000F085F9002516E08021234800F07FF92D
:1046900064000220FFF71CF840211F4800F074F965
:1046A0000420FFF715F840211B4800F070F90220A4
:1046B000FFF70EF86D1CEDB2082D06D22006E3D5EB
:1046C0008021154800F060F9E2E731BD38B5FFF709
:1046D0002EFF002416E040210F4800F058F9022078
:1046E000FEF7F6FF40210C4800F04EF96D008021E6
:1046F000094800F03EF9002800D06D1C0220FEF7AA
:10470000E7FF641CE4B2082CE5D34021024800F026
:104710003EF92800C0B232BD000C01401810024022
:10472000F8B504000D0016001F00FFF70CFF200075
:10473000C0B2FFF79FFFFFF759FF2800C0B2FFF795
:1047400099FFFFF753FF002406E03078FFF792FF50
:10475000FFF74CFF761C641CE4B2FFB2BC42F4D3FA
:10476000FFF70BFF42F21070FEF7B2FF0020F2BD20
:10477000F8B504000D0016001F00FFF7E4FE20004E
:10478000C0B2FFF777FFFFF731FF2800C0B2FFF795
:1047900071FFFFF72BFFFFF7D6FE601CC0B2FFF7DB
:1047A00069FFFFF723FF002407E0FFF78FFF30705A
:1047B0000020FFF7FCFE761C641CE4B2FFB2781EFA
:1047C0008442F2DBFFF782FF30700120FFF7EFFE3B
:1047D000FFF7D3FE0120F2BD70B504000D001600F6
:1047E000FFF7B1FE2000C0B2FFF744FFFFF7FEFE67
:1047F000002407E0FFF76AFF28700020FFF7D7FECC
:104800006D1C641CE4B2F6B2701E8442F2DBFFF74A
:104810005DFF28700120FFF7CAFEFFF7AEFE012002
:1048200070BD00001B4908431B490860704710B465
:10483000002100220F23C478002C1ED016490968DD
:1048400011F4E061D1F5E061090AD1F10402CB4035
:104850004178914082781A401143090102780F4B48
:10486000D154017849110E4A0123007810F01F003D
:1048700013FA00F042F821000AE001784911094AD0
:104880000123007810F01F0013FA00F042F8210015
:1048900010BC70470000FA050CED00E000E400E0F9
:1048A00000E100E080E100E0F0B4002200260024F6
:1048B00000250023002791F803C01CF00F0C62466E
:1048C00091F803C05FEACC6C01D58B781A430B7862
:1048D0001B0621D00368002406E0CD78482D02D1C4
:1048E0000125A5400561641C082C14D20125A540B2
:1048F0000E882E40AE42F6D1A5000F2616FA05F717
:10490000BB4312FA05F52B43CD78282DE5D10125BF
:10491000A5404561E7E703600B88B3F5807F26D3A8
:104920004368002420E0012514F10806B5400E88F4
:104930002E40AE4217D1A5000F2616FA05F7BB434D
:1049400012FA05F52B43CD78282D04D1012514F159
:104950000806B5404561CD78482D04D1012514F1F4
:104960000806B5400561641C082CDCD34360F0BC2C
:1049700070470022806889B2084201D0012200E01D
:1049800000221000C0B2704789B20161704789B23D
:10499000416170474100090E7F3915D4D1F11F01E3
:1049A00014D4400007D2C00140F00040C84048BFC6
:1049B0006FF000407047C00140F00040C8404CBF5D
:1049C0004FF00040404270470020704700424FF0D7
:1049D000004058BFC0437047C905C90D818070476A
:1049E0008088C005C00D7047002289B2B1F5007FF4
:1049F0000088084201D0012200E000221000C0B26D
:104A000070470000C9B2002905D01649096808435B
:104A10001449086005E01349096831EA00001149AA
:104A200008607047C9B2002905D00F4909680843DA
:104A30000D49086005E00C49096831EA00000A499F
:104A400008607047C9B2002905D0084909680843C1
:104A50000649086005E00549096831EA0000034994
:104A6000086070471C1002400C10024010100240F9
:104A700080B5DFF84C1288420AD101214FF4006062
:104A8000FFF7D0FF00214FF40060FFF7CBFFD7E026
:104A9000B0F1804F08D101210120FFF7D3FF0021A1
:104AA0000120FFF7CFFFCBE0DFF81812884208D1D2
:104AB00001210220FFF7C6FF00210220FFF7C2FFFD
:104AC000BEE0DFF80412884208D101210420FFF77C
:104AD000B9FF00210420FFF7B5FFB1E0DFF8EC11CA
:104AE000884208D101210820FFF7ACFF00210820EF
:104AF000FFF7A8FFA4E0DFF8D811884208D1012110
:104B00001020FFF79FFF00211020FFF79BFF97E089
:104B1000DFF8C011884208D101212020FFF792FF61
:104B200000212020FFF78EFF8AE0DFF8AC118842D9
:104B30000AD101214FF40050FFF774FF00214FF418
:104B40000050FFF76FFF7BE0DFF8901188420AD139
:104B500001215FF40020FFF765FF00215FF40020D2
:104B6000FFF760FF6CE0DFF8781188420AD101217D
:104B70005FF48010FFF756FF00215FF48010FFF70D
:104B800051FF5DE0DFF85C1188420AD101215FF43A
:104B90000010FFF747FF00215FF40010FFF742FF0E
:104BA0004EE05149884208D101214020FFF74AFFD9
:104BB00000214020FFF746FF42E04C49884208D1DF
:104BC00001218020FFF73EFF00218020FFF73AFF00
:104BD00036E0474988420AD101214FF48070FFF73F
:104BE00031FF00214FF48070FFF72CFF28E041498E
:104BF00088420AD101215FF48030FFF713FF0021C2
:104C00005FF48030FFF70EFF1AE03B4988420AD17B
:104C100001215FF40030FFF705FF00215FF4003051
:104C2000FFF700FF0CE03549884209D101215FF40C
:104C30008020FFF7F7FE00215FF48020FFF7F2FEEF
:104C400001BD002203881A001D4B98420ED0224B52
:104C500098420BD0B0F1804F08D01A4B984205D043
:104C6000194B984202D0194B984204D14FF68F73DA
:104C70001A404B881A43164B984207D0154B98425E
:104C800004D04FF6FF431A40CB881A4302808A882B
:104C900082850A8802850A4A90420BD00E4A9042C9
:104CA00008D0144A904205D0134A904202D0134AC9
:104CB000904201D1097A018601218182704700006A
:104CC000002C01400004004000080040000C00409F
:104CD000001000400014004000340140004C01402E
:104CE000005001400054014000180040001C0040EA
:104CF00000200040004001400044014000480140C5
:104D0000C9B2002904D0018851F00101018004E0FA
:104D100001884FF6FE7211400180704789B2C94385
:104D20000182704770470000F446400D40EAC12000
:104D3000490006D200F014F8004248BF6FF000406E
:104D4000604700F00DF84FF0004188428CBF0846E4
:104D500040426047400D40EAC120490080F00D808C
:104D600040F00040490DA1F58061491C05D4D1F106
:104D70001F0154BFC840C01770474FF00000704774
:104D8000010040F10980F446404200F005F851F07E
:104D900000416047010000BF09D0B0FA80F18840AF
:104DA000C91CC1F58461090501EBD021400570479C
:104DB0002DE97C4C0646D6E9004546484649224640
:104DC0002B46FDF701FCCDE9000100220023FFF78F
:104DD000FBF8DDE9002399BF00204049002040494D
:104DE000FDF7C4FCCDE90001002100A800F090F817
:104DF000DDE900230020002100F0CAF84ED0394937
:104E0000FDF7E2FB82468B464FF0A0403649524602
:104E10005B46FDF7D9FB02460B4620462946FDF7C7
:104E200019FD04460D464FF0C040304952465B46DE
:104E3000FDF7CAFB02460B4620462946FDF70AFD50
:104E400004460D464FF00050294952465B46FDF797
:104E5000BBFB02460B4620462946FDF7FBFC0446F9
:104E60000D460020234952465B46FDF7ADFB024646
:104E70000B4620462946FDF7EDFC04460D464FF053
:104E800000501D4952465B46FDF79EFB02460B460D
:104E900020462946FDF7DEFC04460D46C6E90045DE
:104EA000DDE90001154A164BFEF744FC04D3154A10
:104EB000154BFFF789F805D80022144B00F078F85D
:104EC000CDE90001DDE90001FFF72EFF00F003004E
:104ED000BDE8768C83C8C96D305FE43F0000E03FD9
:104EE0000000E0BF0000303EFB21B941B41011408A
:104EF00026A6513E5C14D33C9A833B3B0000C0FF86
:104F0000FFFFDFC10100C0FFFFFFDF410000E04104
:104F10004268C2F30A5240F2FF7C624509D14168FF
:104F2000090304BF0068002801D101207047022056
:104F3000704743685B0004BF0368002B25D040F234
:104F400033439A1A521A012A1FDB352A06DB4168BD
:104F500001F0004141600021016013E0012102F0F5
:104F60001F039940491E920607D5426811404A40E6
:104F7000426002681143002202E0026811404A4088
:104F8000026011B14FF0FF30704700207047000001
:104F900090420CD141EA030C50EA4C0C07D09942E4
:104FA00005D14FF4001C1CEB410F38BF89427047FC
:104FB00070B540F2FF7601F0004C5B0006EA115438
:104FC0005D0D1ABFB442B54278E0B3EB410F08BFA4
:104FD00082424BD2C3F3530343F48013C1F3130152
:104FE00041F48011641B0B3C13D9C90241EA5051B2
:104FF000B1FBF3FE03FB1E11A2FB0EE6DEEBC020AD
:10500000B14101D28018594150EA010653D00B3CFE
:10501000EBD80B34C4F12006A14020FA06F6A040DC
:105020003143B1FBF3FE03FB1E11A2FB0EE6B0EB16
:105030000E00B14101D28018594102BF0146203D06
:105040000020C1B3B1FA81F39940C3F1200220FAE4
:1050500002F211439840ED1A0A3509DBC00A40EA12
:1050600041504CEAD12101EB055170BD23D070BDF8
:10507000D5F10B05B5F120020DDAC5F120020300D0
:10508000E84001FA02F6E940934073F100437041B1
:1050900051EB0C0170BD402D0DDC430821FA02F0EC
:1050A000C2F1200511FA05F6334373F10043704154
:1050B0005CF1000170BD6146002070BD53EA020E34
:1050C0001ABFB442B54237E0B3EB410F08BF82428A
:1050D000CCD25B08B3FA83F504BFB2FA82F6AD19FD
:1050E0000B3DB5F1200624BF02FA06F305E0AB4004
:1050F000C5F1200622FA06F63343AA40D5F1010590
:1051000024427FF46BAF31F00041B1FA81F404BF67
:10511000B0FA80F6A4190B3CB4F1200624BF00FAC3
:1051200006F105E0A140C4F1200620FA06F631435D
:10513000A040D4F1010455E74FF4001515EB410FE1
:105140002CBF6FF00041EB4218BF6FF00041BDE88B
:105150007040FEF46BAF70472DE9F04FA5B080466C
:1051600015461E460FF2B050D0E90023CDE91223B8
:10517000049104AF0020786214AC6FF0004900E0A5
:1051800055440020ADF8020012AB4FF0FF32294623
:105190000DF1020001F00DF88246BAF1010F08DAB4
:1051A0002878B0F1010A6AEB0A0A6FEA0A004FEAAE
:1051B000D07ABDF8020025280CBFAAF1010353469E
:1051C000012B07DB2A4602A9404600F0CEFF00284B
:1051D00000F1E780BDF80200252807D10020F86023
:1051E00038617861B861F861386205E00028C7D19C
:1051F000786A99E240F0010015F8011F2029F9D0E2
:1052000023290DD02B2904D02D2906D030290AD0EE
:105210000CE040F0020080B2EEE740F00400FAE754
:1052200040F00800F7E740F01000F4E72A290DD11C
:1052300031680A1D32600968F962002904D54942C3
:10524000F96240F0040080B26D1C12E00021F962A6
:1052500009E0F96A494505D001EB810302EB4301FE
:105260003039F9626D1C2A78A2F13001C9B20A29DD
:10527000EFD329782E2903D04FF0FF31B9621DE01A
:1052800015F8011F2A2906D131680A1D3260096804
:10529000B9626D1C12E00021B96209E0B96A4945A2
:1052A00005D001EB810302EB43013039B9626D1C7B
:1052B0002A78A2F13001C9B20A29EFD338862978B9
:1052C0000FF25C4000F086FF08B115F8010B8DF875
:1052D00042009DF84200682804D1287868280AD145
:1052E000622005E06C2804BF28786C2803D1712067
:1052F0008DF842006D1C14A8B8602978B1F1250022
:1053000027D01C3800F08680001F022840F28280DF
:10531000133800F0A98009387CD0801E00F03A8153
:10532000401E00F0E480401E022873D9001F00F0E8
:10533000DE80401F43D0401E00F09680401E33D0D8
:10534000C01E0BD0801E00F08F80C01E00F08C802D
:1053500040E1F868411CF960252144E19DF84200D4
:105360006C28306813D0011D316000687860BA6A1B
:10537000002A02D500F03AFF07E0002100F052FFBA
:1053800000281ABF7968401AB86A38612CE1011DFB
:105390003160026802A9404600F0C9F9002840F1D6
:1053A00023814FF0FF30BFE13068011D316000689C
:1053B0000021CDE9020114A878607821E6E09DF88B
:1053C0004200622818D0682806D06A280BD06C28C2
:1053D00019D0712807D016E03068011D3160796A54
:1053E0000068018000E13268101D3060786AC117E2
:1053F0001268C2E90001F7E03068011D3160796A86
:1054000000680170F0E03068011D3160796A006861
:105410000160E9E03068C01D20F00700306000F155
:1054200008023260D0E90023CDE90223002B04D525
:10543000F868421CFA602D220DE0388E820704D5F0
:10544000F868421CFA602B2205E0C00704D5F86812
:10545000421CFA6020220255F86814AA801878606D
:1054600002A800F05BFBBFE09DF842006C2808BF7B
:10547000326811D0712808BF326802D06A283268B9
:105480000AD1D21D22F00702326094460CF10802C4
:105490003260DCE9002303E0131D3360126800234F
:1054A000CDE90223682808BF92B207D0622808BF5E
:1054B000D2B203D0742818BF7A2802D10023CDE9D4
:1054C000022397F8300000075CD5DDE90223002BAA
:1054D00008BF002A56D041F02000782852D1F86841
:1054E00030220255401C421CFA6001554AE09DF8EA
:1054F000420062280CD0682810D06A281AD06C2884
:1055000023D0712816D074281FD07A280CD01CE024
:105510003068021D326090F900201AE03068021DE8
:105520003260B0F9002014E03068021D3260026879
:1055300000230FE03068C01D20F00700306000F14C
:1055400008023260D0E9002304E03068021D3260B6
:105550000268D317CDE90223002B04DAF868421C55
:10556000FA602D220DE0388E820704D5F868421CBF
:10557000FA602B2205E0C00704D5F868421CFA60E7
:1055800020220255F86814AA8018786002A800F05A
:105590003AFA29E09DF842006C2807D0F868411CCF
:1055A000F96031680A1D326009681CE03068011D2D
:1055B00031600068ADF804000020ADF806004FF03F
:1055C000FF30B86201AA02A9404600F0B0F80028F6
:1055D0000AD5E6E6F868421CFA602522025519B1A0
:1055E000F868421CFA6001556D1CF86AF968401AA7
:1055F000B969401A3969401AF969401A7969401A3B
:10560000396AA0EB010A97F83000400712D4202035
:105610008DF80000BAF1010F0CDBD346012300AA7C
:1056200002A9404600F0A1FD00287FF4BAAEBBF10C
:10563000010BF3D1FB6814AA02A9404600F095FDC6
:1056400000287FF4AEAE30208DF80000D7F818B0F7
:10565000BBF1010F0BDB012300AA02A9404600F0B9
:1056600084FD00287FF49DAEBBF1010BF3D13B69B3
:105670007A6802A9404600F078FD00287FF491AED8
:1056800030208DF80000D7F81CB0BBF1010F0BDB08
:10569000012300AA02A9404600F067FD00287FF41C
:1056A00080AEBBF1010BF3D17B6938697968421890
:1056B00002A9404600F059FD00287FF472AE302068
:1056C0008DF80000D7F820B0BBF1010F0BDB0123F0
:1056D00000AA02A9404600F048FD00287FF461AE10
:1056E000BBF1010BF3D197F8300040077FF549ADCE
:1056F00020208DF80000BAF1010FFFF642AD012322
:1057000000AA02A9404600F030FD00287FF449AE0F
:10571000BAF1010AF3D134E50000000000000000F6
:10572000686A6C747A4C000025B0BDE8F08F2DE9F2
:10573000F04F95B083460F461446D7F830A0BAF123
:10574000000F48BF6FF0004A00F098FD796B4018D9
:1057500001900FF64422D2E90001CDE9020197F849
:105760003800400702D40198412805D20DF11009F4
:1057700040200190002509E000F086FD5FEA000965
:10578000F8D14FF0FF303BE1AAEB080ABAF1010F64
:10579000C0F2A98002AA21880DF1010000F0CCFD21
:1057A0005FEA000800F1BF80208818B9B8F101084D
:1057B00000F1B980C245C0F296807869019908EB82
:1057C0000002914280F080807D634042396A401A35
:1057D000B969401A796A401AF969401AB96A451AD2
:1057E00097F83800400710D420208DF80000012DD4
:1057F0000BDB2E46012300AA3946584600F0B5FCC3
:10580000002840F09080761EF4D17B694A463946E4
:10581000584600F0AAFC002840F0858030208DF822
:1058200000003E6A012E09DB012300AA39465846D2
:1058300000F09BFC002876D1761EF5D1BB69FA6892
:105840003946584600F091FC00286CD130208DF884
:1058500000007E6A012E09DB012300AA3946584662
:1058600000F083FC00285ED1761EF5D1FB69B86993
:10587000F96842183946584600F077FC002852D1A2
:1058800030208DF80000BE6A012E09DB012300AA3A
:105890003946584600F069FC002844D1761EF5D1FF
:1058A00097F8380040070DD520208DF80000012D15
:1058B00008DB012300AA3946584600F056FC90BB8D
:1058C0006D1EF6D100257D6142460DF1010178691A
:1058D000484400F03FFD78694044786134F8020B99
:1058E00000287FF451AF786B7969401A396A401A01
:1058F000B969401A796A401AF969401AB96AA0EB85
:10590000010897F83800400712D420208DF80000D5
:10591000B8F1010F0CDB4446012300AA3946584672
:1059200000F023FC10B14FF0FF3562E0641EF3D1AC
:105930007B694A463946584600F017FC0028F2D1E8
:1059400030208DF800003C6A012C09DB012300AAFD
:105950003946584600F009FC0028E4D1641EF5D110
:10596000BB69FA683946584600F0FFFB0028DAD1D7
:1059700030208DF800007C6A012C09DB012300AA8D
:105980003946584600F0F1FB0028CCD1641EF5D111
:10599000FB69B869F96842183946584600F0E5FBDA
:1059A0000028C0D130208DF80000BC6A012C09DB32
:1059B000012300AA3946584600F0D7FB0028B2D18F
:1059C000641EF5D197F83800400710D520208DF8D7
:1059D0000000B8F1010F0ADB012300AA394658463E
:1059E00000F0C3FB00289ED1B8F10108F4D17D611D
:1059F0007D6304A881451CBF484600F0E7FC2846AB
:105A000015B0BDE8F08F2DE9FA4782B0064635693A
:105A10006F2908BF082705D041F02000782814BF5F
:105A20000A2710273C24D6E90001804689469DF8C4
:105A30000820642A18BF692A05D1002903DAD8F1A1
:105A4000000869EB4909B9F1000F08BFB8F1000F70
:105A50000CD1306B50B9082F3BD196F838000007B5
:105A600037D53B24302085F83B0032E0A4F1010A11
:105A70005446FB17404649463A4600F0E7FCCDE95C
:105A80000089B846A8FB0023DDE90089A8EB0202E3
:105A90003032D2B23A2A03D39DF80830513B9A18DB
:105AA0000AF8052080465FEA010908BFB8F1000F37
:105AB00003D0F06861198842D8D3082F09D196F82D
:105AC0003800000705D5605D302802D0641E302004
:105AD0006055C4F13C00B0616119F160316B8842DE
